:020000040020DA
:10000000E037002091022000D10220008D02200064
:100010008D0220008D0220008D02200000000000D3
:100020000000000000000000000000008D02200021
:100030008D022000000000008D022000E910200049
:10004000DD152000D1152000C5152000B9152000B0
:100050000000000085122000911220008D02200077
:100060008D022000000000000000000000000000E1
:1000700000000000000000008D02200000000000D1
:1000800000000000000000008D0220008D02200012
:100090008D0220008D0220008D0220008D022000A4
:1000A0008D0220008D0220008D0220008D02200094
:1000B0008D0220008D0220008D0220008D02200084
:1000C0008D0220008D0220008D0220008D02200074
:1000D0008D02200000000000000000000000000071
:1000E0000000000000000000000000000000000010
:1000F00000000000000000007D1E20008D1E20007A
:1001000000000000000000000000000000000000EF
:1001100000000000000000000000000000000000DF
:1001200000000000000000000000000000000000CF
:1001300000000000000000000000000000000000BF
:1001400000000000000000000000000000000000AF
:10015000000000000000000000000000000000009F
:10016000000000000000000000000000000000008F
:10017000000000000000000000000000000000007F
:10018000000000000000000000000000000000006F
:10019000000000000000000000000000000000005F
:1001A000000000000000000000000000000000004F
:1001B000000000000000000000000000000000003F
:1001C000000000000000000000000000000000002F
:1001D000000000000000000000000000000000001F
:1001E000000000000000000000000000000000000F
:1001F00000000000000000000000000000000000FF
:1002000000000000000000000000000000000000EE
:1002100000000000000000000000000000000000DE
:1002200000000000000000000000000000000000CE
:1002300000000000000000000000000000000000BE
:1002400000000000000000000000000000000000AE
:10025000000000000000000000000000000000009E
:10026000000000000000000000000000000000008E
:100270008D022000611B2000311B2000B1162000E0
:100280008D022000451120008D022000FEE7C046AF
:1002900010B5094BFF221A600848094A4824E3694F
:1002A0000849121A98470848084AA3690021121AF7
:1002B000984700F019FCFEE7B4200D4040000020F4
:1002C0000F02002060BE200010020020DF2F00205F
:1002D00010B5FFF7DDFFFEE713B5069ABDF81C4029
:1002E0000092BDF814101A460248234601F056FF4A
:1002F0001CBDC04612B520002DE9F04104888CB029
:1003000006461CB1672C40F0AA801EE00F2000F0CA
:100310009FFB5648564905F0D1FC564A214656489F
:1003200006F07AFD43F23901534806F0E3FC5248E7
:10033000214643F2390206F0E9FC50484FF480713F
:1003400002F086FC4FF0670333804C4802F0AAFBB2
:1003500000B988E00DF125084949052240460DF114
:100360001E070AF0E1FE00240522464938468DF8B2
:100370002A408DF82B400AF0D7FE6FF03F038DF82E
:100380002C306FF057038DF82D306A330DF10E01CC
:100390008DF82E300BA844338DF82F308DF8234084
:1003A0008DF8244006F066FA00F0F6F8364B8DF82A
:1003B0002B401B788DF8244030338DF82930334B97
:1003C0001B7830338DF82A30314B1B7830338DF861
:1003D0002230304B1B7830338DF823302E4B197878
:1003E000F9B12E4D2B78E3B12D4801F0D7FE2978D5
:1003F0002C4801F0D3FE00F04DFA142021462A4A81
:1004000000F060FA14200221284A00F05BFA142060
:100410000421424600F056FA142006213A4600F024
:1004200051FA0DF10E05072243F239040DF12501B1
:100430002B461148009406F0D9FC07222B460E48A3
:100440000DF11E01009406F0D1FC134B1B781D2BFF
:1004500001D9042200E00022154B1A606DE74FF02D
:100460000003038003200CB0BDE8F08130020020BF
:10047000B5042000D902200038020020200200200C
:1004800004B520000BB52000BB2F00200C0200207B
:10049000C02F0020B82F0020BD2F0020BF2F00202C
:1004A0004EB5200059B5200064B520006BB5200082
:1004B00010900D4010B528B90F3000F0BFFA024877
:1004C00001F0D0FD10BDC04676B5200040F82110E7
:1004D0007047C04650F821007047C04610B500F084
:1004E000CBFD10BD70B500251F4B02221A701F48AE
:1004F0000121FFF7EFFF28B91B4B19784A1C1A702E
:100500000029F4D10A20FFF7E9FF0A20FFF7E6FFF0
:10051000174C0A20FFF7E2FF002314480121237043
:10052000FFF7D8FF08B1012323700F4B02221A7086
:100530000E480121FFF7CEFF28B10B4B19784A1C5A
:100540001A700029F4D1084B1B78012B0AD00949F5
:10055000074B0A781B7843EA42030B706B1CDDB231
:10056000082DC1D170BDC046B52F002000A00D40A0
:10057000B72F0020B92F002070B5054608E00024F1
:100580000A20FFF7ABFF631CDCB2642CF8D1013DFD
:10059000002DF4D170BDC0465E4B2DE9F04700241C
:1005A0001C600A20FFF7E8FF0A20FFF7E5FF0A209A
:1005B000FFF7E2FF01215848FFF788FF574A0A205A
:1005C000136823F001031360FFF788FF0A20FFF789
:1005D00085FF0A20FFF782FF0520FFF77FFF4E48C7
:1005E0000121FFF777FF002840F082804C4B022268
:1005F0001A7049480121FFF76DFF28B9484B197857
:100600004A1C1A700029F4D1454B02221A70424844
:100610000121FFF75FFF28B1414B19784A1C1A707E
:100620000029F4D13F4CFFF75DFF0A20FFF756FF8A
:10063000DFF824A12378DFF824918AF80030FFF74F
:1006400051FF0A20FFF74AFF2378DFF8148189F869
:100650000030FFF747FF0A20FFF740FF2378324DB5
:1006600088F80030FFF73EFF0A20FFF737FF2378B6
:100670002E4E2B70FFF736FF0A20FFF72FFF23784F
:10068000012125483370FFF721FF1E20FFF726FFC9
:1006900098F800402D789AF800102B1999F800006E
:1006A000CB18C318224ADBB2137032789A4209D1B0
:1006B000204B1970204B1870204B1C70204B1D7064
:1006C000204B1A701D4B0A2118781F4AB0FBF1F31A
:1006D000137001FB13031D4A1370164B1C4A187844
:1006E000B0FBF1F3137001FB13031A4A137007E018
:1006F000154B1C70154B1C70154B1C70154B1C704A
:10070000064A1920136843F001031360FFF7E6FE61
:10071000BDE8F08704A00D4000A00D4000A40D40EE
:10072000B52F0020B92F0020B62F0020BA2F0020AF
:10073000B72F0020BF2F0020B32F0020BD2F002097
:10074000C12F0020B42F0020BB2F00200C0200205E
:10075000C02F0020B82F0020BC2F0020BE2F00206B
:10076000B22F002040F821107047C046002340F807
:100770002130704770B5022105461648FFF7F6FF95
:1007800014480821FFF7EEFF12481021FFF7EEFF93
:10079000002415F0800F04D00E482021FFF7E2FF5F
:1007A00003E00C482021FFF7E1FF10210948FFF783
:1007B000D9FF10210748FFF7D9FF631CDCB2082CD2
:1007C00002D06B00DDB2E4E702480221FFF7CAFF66
:1007D00070BDC04600A00D4070B502210546164808
:1007E000FFF7C4FF14480821FFF7C0FF124810218B
:1007F000FFF7BCFF002415F0800F04D00E48202125
:10080000FFF7B0FF03E00C482021FFF7AFFF1021F6
:100810000948FFF7A7FF10210748FFF7A7FF631C50
:10082000DCB2082C02D06B00DDB2E4E70248022102
:10083000FFF798FF70BDC04600A00D40503910B5BD
:100840000446C8B2FFF7C8FF200940F0100004F0CA
:100850000E04FFF7C1FF44F00100FFF7BDFF10BD1C
:1008600070B50646B0252846FFF7B6FF0120FFF712
:10087000B3FF1020FFF7B0FF00243046FFF77AFFE8
:10088000631CDCB2802CF8D16B1CDDB2B82DEAD130
:1008900070BDC04610B58D20FFF79EFF1420FFF7F6
:1008A0009BFFAF20FFF798FF10BDC04610B58D200D
:1008B000FFF792FF1020FFF78FFFAE20FFF78CFFAE
:1008C00010BDC0462DE9F84F0646884693464FF0C6
:1008D000000930E0203B782EDCB204D908F1010396
:1008E0005FFA83F8002630464146FFF7A7FF154B15
:1008F0004FEA041A03EB0A052F46002417F8010BF0
:10090000FFF738FF631CDCB2082CF7D108F10101B6
:100910003046C9B2FFF792FF287AFFF72BFF0A4B48
:10092000013553449D42F7D106F10803DEB209F1C7
:1009300001035FFA83F91BF80930002BCAD1BDE827
:10094000F88FC046A9B52000B1B5200010B5354AD2
:10095000354C1368042143F00203136013682046EA
:1009600043F010031360136843F008031360136827
:1009700043F004031360136843F020031360FFF790
:10098000F5FE0A2000F078FB20460421FFF7EAFE7E
:1009900002212046FFF7EAFEFFF788FFAE20FFF7AF
:1009A0001BFF0020FFF718FF1020FFF715FF402066
:1009B000FFF712FF8120FFF70FFFCF20FFF70CFF9B
:1009C000A120FFF709FFC820FFF706FFA620FFF7C9
:1009D00003FFA820FFF700FF3F20FFF7FDFED32015
:1009E000FFF7FAFE0020FFF7F7FED520FFF7F4FE31
:1009F0008020FFF7F1FED920FFF7EEFEF120FFF790
:100A0000EBFEDA20FFF7E8FE1220FFF7E5FEDB2021
:100A1000FFF7E2FE4020FFF7DFFE0020FFF720FF98
:100A200010BDC04600A40D4000A00D40024B10B503
:100A3000187000F029F810BDFE1C002010B5034B03
:100A40001B7823EA0000FFF7F1FF10BDFE1C002019
:100A500010B5034B1B781843FFF7E8FF10BDC046E5
:100A6000FE1C002010B500F007F8024B00221A709F
:100A700010BDC046FE1C0020024A136843F00F035D
:100A80001360704700B40D40014B18607047C046BA
:100A90003CB00D4073B5002506462C4605E0B4F584
:100AA000C87FD4BF2546C4F548753046FFF7D0FF50
:100AB000002302E000BF019B01330193019BAB4285
:100AC000F8DB3046FFF7BAFF002302E000BF019BCE
:100AD00001330193019AC5F5C8739A42F6DB0134DC
:100AE000B4F5487FDBD17CBD2DE9F04186B000F044
:100AF000B3FC00F079FD00F0F9FC00F081FA01F0A0
:100B000017FA02F035FA00F027FDFFF7ABFF0220DD
:100B1000FFF7C0FF02F0ACF800F08AFC00F0F8F933
:100B200009F004FCFFF712FF002000F0B7FB0120E2
:100B300000F0B4FB4C49002000F05AFB02F092FA9E
:100B400000F0CCFC0420FFF7A5FF484801F08AFA2A
:100B5000474801F087FA474801F020FB464B0DF16A
:100B60000704186801F07EFA444801F017FB444B73
:100B7000186801F077FA434801F010FB424B1868FF
:100B800001F070FA002002F0FBFA01F085F93F480D
:100B9000002102F03BF901F071FF2046082101F02D
:100BA00085FA214608223A489DF80E809DF80D707E
:100BB0000AF0BAFA374801F0F1FA0024344E364808
:100BC000315D013401F0EAFA072CF7D1334DF179A8
:100BD000334801F0E3FAEC6A4AF6CD310220A0472F
:100BE00048EA07210320A0471A210120A0470DF160
:100BF00007046B6B214608220920984706F074FB16
:100C00000822314627480AF08FFA06F041FD2648AF
:100C1000002102F0FBF800F009FD0021234802F05A
:100C2000F5F801F03DFF184B01209B6998472049DA
:100C3000112220460AF078FA1E4801F013FA2046E5
:100C400007F0A0FB1C4801F077FE00F0F7FB08203E
:100C5000FFF720FF00F0F8FB02F00AF910F0FF0F99
:100C6000F8D101F077F9F5E78930200099BB200031
:100C7000A5BB2000BDBB200090B42000C4BB200059
:100C8000C0B42000CBBB2000A0B42000AC000020EA
:100C9000D72F0020D2BB2000F0BB2000C8B320001B
:100CA000F6BB20007C2400204401002050000020DE
:100CB0000CBC2000FCBB200008B32000064B014602
:100CC0001A78002005E0054B53F820308B4202D003
:100CD00001309042F7DB7047FF1C002060000020CD
:100CE00070B504880546772C20D07E2C35D0002C9A
:100CF00053D101F0B5FF2B4B18702B4B1C6008E053
:100D00002A4B002199548368802098472368013337
:100D10002360254C264B226853F822000028EFD18F
:100D2000244B1A704FF077032B801AE0224A0023DD
:100D300013601D4A25E01D4B9B56002B1EDA194BF4
:100D4000002019781A4B53F8222001F0B3FF50B954
:100D50004FF07E032B80013023E0124B1B788B4237
:100D600001D001201DE0104B104A1968535C03F0BC
:100D70007F035354104A1368013313600A4A1368FF
:100D800001331360084B1A680A4B1B789A42D2DB76
:100D9000094B1B68002BC9D1C4E74FF00003038047
:100DA000032070BDC22F002048020020C32F002066
:100DB00060000020FF1C00204C02002010B5FFF74F
:100DC0007DFF054A135C6FEA43636FEA5363135474
:100DD000024801F097FF10BDC32F002050000020F3
:100DE000D0F82034CA431340C0F82034D0F800347F
:100DF0001340C0F80034D0F804341340C0F8043471
:100E0000D0F808341340C0F80834D0F80C340B4341
:100E1000C0F80C34D0F810340B43C0F810347047CD
:100E200010B580210848FFF7DBFF072104220220CC
:100E300000F0E8FB022000F02DFB0448022107220D
:100E400000F068FB012010BD00B00D40210F200014
:100E500010B540210848FFF7C3FF062104220220F5
:100E600000F0D0FB022000F015FB0448022106220E
:100E700000F050FB012010BD00B00D40210F2000FC
:100E800010B520210848FFF7ABFF052104220220FE
:100E900000F0B8FB022000F0FDFA04480221052210
:100EA00000F038FB012010BD00B00D40210F2000E4
:100EB00010B510210848FFF793FF04210A460220CD
:100EC00000F0A0FB022000F0E5FA04480221042211
:100ED00000F020FB012010BD00B00D40210F2000CC
:100EE00010B508210848FFF77BFF032104220020EA
:100EF00000F088FB002000F0CDFA04480021032216
:100F000000F008FB012010BD00900D40210F2000D3
:100F100010B50248002102F049F810BD500200202F
:100F200070B5054610480C4602F02CF8D8B10E48B2
:100F3000102102F03BF81DB9032C14D10B4810E02E
:100F4000022D10D1042C01D109480AE0052C01D151
:100F5000084806E0062C01D1074802E0072C02D120
:100F60000648FFF72BFF70BD5002002010B3200091
:100F700030B3200040B3200020B3200050B3200045
:100F800001207047802870B51ED1104E104D336877
:100F9000002423F0800333602B68204643F0800355
:100FA0002B600C4B07211C60224600F02BFB3368A2
:100FB000204623F0400333602B68062123F04003D2
:100FC0002B60012200F01EFB002070BD20940D401C
:100FD00000940D4000920D4010B5084CFF23236093
:100FE0004FF4FA6000F048F806200021302200F0AB
:100FF00025FB0023236000B210BDC04600920D40C7
:101000000E4A0F4B1A600F4A136843F00503136032
:10101000136843F0020313600B4A136843F00103A3
:1010200013600A4B00221A6004320C3B1A60012242
:1010300004331A600E3234331A60704747E80100F7
:1010400014E000E010E000E008200D400C00034038
:10105000034BD3E90023100A40EA03607047C046FF
:1010600010020020034BD3E90023D00B40EA434099
:101070007047C04618020020064B074A18601368E4
:1010800043F001031360044B1B6813F0010FFAD106
:101090007047C046280003400C000340D0B500F064
:1010A0003FF80F4B0F4CD3E90067B04239460C4B69
:1010B00038BF791C002242EA0000C3E90001D4E9EC
:1010C0000023921B63EB0703121843EB0103C4E9EF
:1010D000002301F0F1FC08B101F032FDD0BDC046A3
:1010E000100200201802002010B5FFF7D7FF10BD36
:1010F00010B5064C236823F001032360FFF7CEFFF1
:10110000236843F00103236010BDC04610E000E0F7
:101110007047C046014B18687047C046580200200F
:10112000074B196804331A68043318680433000441
:101130001B6840EA0220084340EA03607047C0464B
:1011400040500D4010B500F069FF064B00221A60B8
:10115000912000F0B7F9912000F0A8F901F0E4FE29
:1011600010BDC0465802002010B50446114B1B6844
:1011700013F0010FFAD000F0B5F9FFF7D1FF231AF1
:10118000062BD8BFC41D0C4B220E1A60C4F30742B5
:10119000043B1A60C4F30722043B1A60043B04F0CA
:1011A000FF021A6000F09AF9044B91201C6000F0D5
:1011B00071F910BD50500D404C500D4058020020A8
:1011C0000849094B1A680B681A4204D0CB689B691E
:1011D00013F0800004D0054B2C319942F1D301204B
:1011E0007047C04670B3200028200D40C8B32000CF
:1011F00001289CBF014B43F8201070475C0200207F
:10120000012809D8054A2C2303FB0023D8688369E9
:1012100013F0200FFBD101607047C04670B320006F
:10122000164A2C2303FB002370B5DC684FF6BF730E
:10123000226C054692B212F05001636409D10DE0B0
:101240000F4B53F825301BB12068C0B2984700E01F
:101250002368A36913F0100FF2D00EE012F4D06FE0
:101260000BD04FF440732363FF236360E36AE162B2
:10127000E362236B43F00103236370BD70B320006E
:101280005C02002010B50020FFF7CAFF10BDC04669
:1012900010B50120FFF7C4FF10BDC04601282DE99D
:1012A000F84F00F2B7802C2303FB00F45A4D2F199E
:1012B00097F920A0BAF1000FC0F2AC8097F8226035
:1012C0004FFA86FBBBF1000FC0F2A480534800F038
:1012D00017FE53492A590B68F6B213430B600431C9
:1012E0000B687A68304613430B6004310B68BA68A8
:1012F00013430B60D7F80C900023C9F8C83F97F947
:1013000021803A6908EBCA03136097F823403A7DBD
:10131000E5B2294600F080F964B23046012616FA9B
:1013200004F406FA08F80822294600F06BF93D4A51
:101330004FEA0B339A18136823431360394A4FEA74
:101340000A339A18136843EA080313605023C9F854
:101350003830D9F8383043F4D063C9F83830022334
:10136000C9F834304FF44073C9F83030BB69C9F85C
:101370002430FB69C9F828307023C9F82C3097F85D
:10138000244065B2002D17DB97F82510264B48B294
:1013900040EAC50216FA00F01A60224A2B039A1896
:1013A0001368034313602046002200F02BF91F4A04
:1013B000136843F40043136097F826604FFA86F8E9
:1013C000B8F1000F1CDB97F82740F6B2E5B23046C3
:1013D0002946012200F020F912494FEA0833591832
:1013E00064B20123A3400A6830461A430A60082207
:1013F000294600F007F90D4A136843F4804313604F
:10140000D9F8303043F00103C9F8303097F828009C
:1014100000F040F8BDE8F88F70B32000C111200043
:1014200028200D4020940D4004410D4030D0004054
:10143000014B00221A60704700500D40014B0822FA
:101440001A60704700500D40024BA0221A605022D3
:101450001A60704700500D40084A094B1A60094B4A
:1014600080321A60084B80321A60084B80321A6052
:10147000074B4FF400121A607047C04600E100E0CD
:101480007002002064020020680200206C0200202C
:1014900008ED00E0044B41091A6800F01F00012329
:1014A000834042F82130704770020020044B41090C
:1014B0001A6800F01F000123834042F82130704772
:1014C00064020020044B41091A6800F01F00012348
:1014D000834042F8213070476C020020EFF3108007
:1014E00062B67047EFF3108072B67047054A064B3C
:1014F0001A60064B1A68064B02EA0303B3F1807FB9
:10150000F7D170470101020100200D4004200D4079
:1015100000000101024B02EBC10243F822007047B8
:10152000740200200B4B2DE9F04107460D4603EBFA
:101530004116002457FA04F313F0010FE1B204D06E
:1015400056F824300BB1284698470134082CF1D1C5
:10155000BDE8F0817402002010B50021802202480D
:1015600009F08EFE10BDC046740200202DE9704FB8
:1015700080460F4E4FEA0839DFF838B04E4400F08D
:101580004DFDD6F8185459F80B404FEAC80A24FA12
:101590000AF4EDB2E4B245EA040004FA0AF4414662
:1015A000FFF7C0FFC6F81C5449F80B40BDE8708F28
:1015B00000900D4018970D4010B50320FFF7D6FF9F
:1015C00010BDC04610B50220FFF7D0FF10BDC046C9
:1015D00010B50120FFF7CAFF10BDC04610B50020AE
:1015E000FFF7C4FF10BDC046034A044B1A60044B0A
:1015F000803A1A607047C04680400D40F8020020D3
:10160000F4020020034B01EBC0011B6843F82120CA
:101610007047C046F8020020034B01EBC0011B6875
:1016200043F821207047C046F4020020024A1368A4
:1016300043F030031360704700700D400E2830B542
:1016400094460BD1154A156845F002031360144AFD
:10165000146824F03F0343F001031360114A136838
:1016600023F0FF0340EA03030B4343EA0C03136038
:101670000D4B1B6813F0800FFAD00C4B1968043324
:101680000E281A6803D1064B1C60044B1D6001F044
:10169000FC0040EA022000B230BDC04634000144E4
:1016A000F486084008700D4000700D400C700D402D
:1016B00010B58F20064CFFF705FF8F20FFF7F6FED1
:1016C000206818B101F01EFB0023236010BDC04646
:1016D000FC02002020B1054A136843F0010303E037
:1016E000024A136823F00103136070470086084024
:1016F0000848017811F0800F0AD1074AED231360E2
:101700001360E32313606FEA41636FEA536303706E
:1017100001207047001D0020388808400A4B1B68D4
:1017200013F0020FFAD1094AED2313601360084B3E
:101730001B680BB1EF231360064A0120137803F0F6
:101740007F0313707047C0464C86084038880840B5
:101750002C860840001D0020A0F10B03DBB20F2BEC
:1017600010B5044601D9FF2014E00B4B1B6813F0A1
:101770003F0301D1194602E0FFF7D0FF0121052305
:101780006343064A2C3B136009B1FFF7B1FF044BDA
:1017900020461C7040B210BD488608403C86084078
:1017A0000D02002010B50B4B1B6813F03F0F01D04A
:1017B000002202E0FFF79CFF0122074B1B6813F099
:1017C000010FFAD0054B1C680AB1FFF7A7FFC4F35D
:1017D000001010BD48860840648608404C860840CA
:1017E000044B186800F02200202814BF00200120BC
:1017F0007047C0464C860840024B186800F0400015
:101800007047C0464C86084070B50D4609B90220A5
:101810006BE00D2808D8DFE800F0090F1A1C230739
:10182000304146075E60626501205EE02F4B1B6819
:10183000003B18BF012356E02D4B05221B6803F027
:101840007F030B3B93FBF2F30B33DBB24BE0294BF3
:1018500000E0294B1A68043B1B6843EA022342E07C
:10186000264B1B6803F00102254B0A601B6813F02E
:1018700020003AD042F0020335E0224B00221B68E0
:10188000D8B2214901EBC2031B79834202D851F837
:10189000323028E001320E2AF3D120E01B4B1B68C6
:1018A0005BB2493B1FE01A4B1B6813F03F0F01D09E
:1018B000002202E0FFF71CFF0122164B1B6813F009
:1018C000010FFAD0144B1C680AB1FFF727FFA4F1EF
:1018D00049035BB207E00B2305E01A2303E06FF036
:1018E000170300E007232B60002070BD2C86084002
:1018F0003C860840CC850840D485084000860840D6
:10190000248608404086084000B4200058860840DD
:1019100048860840648608406086084070B50C46DA
:10192000072805D8DFE800F006111E232C044356D3
:10193000012058E0012902D1FFF7DAFE52E0002928
:101940004ED1FFF7EBFE20464DE0A1F10B030F2B2C
:1019500046D8C8B2FFF700FF40B2B0F1FF3F41D117
:10196000043040E08AB202F0FF011F4B03E08AB26C
:101970001E4B02F0FF011960120A04331A6031E0B5
:1019800031F003052CD101F00100FFF7A3FE14F0A4
:10199000020006D0164A2846136843F0200313605D
:1019A00021E0134A136823F0200313601BE011F1B8
:1019B000180F15DB072913DC0D220E48D10050F853
:1019C00032309C4203DC43181A790B4BD6E7013ABC
:1019D000F3D207E001F0FF03084A4933136001E046
:1019E000022000E0002070BDC8850840D085084076
:1019F0002486084000B420004086084058860840ED
:101A0000092801D001200DE0082A0AD149B1064871
:101A1000002250F804398B540132082AF9D10020F1
:101A200000E002207047C046C4850840092801D064
:101A300001200CE0082A09D141B10548013A8B5C2C
:101A4000013A40F8043BFAD2002000E0022070473F
:101A5000A885084070B5314B84461B6813F04000E0
:101A60005BD02F4B1B68DBB213F0800F42D1042BED
:101A700040D9023B8B423DDCDDB2032D01D8002270
:101A80001DE06C1E0CEB0401032000F0B1F92549A8
:101A90002401032044EA010100F0B4F9032000F01E
:101AA000BBF9032000F0D0F9032000F0D9F9002899
:101AB000FAD107E01A4B1B680CF802300132D3B29E
:101AC000AB42F7D3164B19681B68DCB214F0800FD9
:101AD00010D0493949B2042089B205F0A1FC032095
:101AE00004F07F0105F09CFC0C4A136813F0400FD2
:101AF00006D111E00C4AED231360002013600CE0C6
:101B0000136813F0800F03D0084801F0FBF803E0DE
:101B1000054AED2313601360284670BD4C860840CB
:101B20002888084002C0010C388808408400002042
:101B300010B5084B1B68042B04D0074A137843F0F8
:101B400040031370034B00221A60044801F0DAF8D6
:101B500010BDC0462C880840001D002084000020D5
:101B600010B5034801F0CEF8024B00221A6010BDF8
:101B7000840000203488084070B5234B93F900306E
:101B8000002B01DA00250CE0FFF7CAFA0446FFF744
:101B9000AFFDFFF7C5FA6FF009031B1BC342F8D472
:101BA0000125FFF7FFFD00282AD0184B1B6813F012
:101BB000200125D1164BE9221A600C4604E0631C73
:101BC0000620DCB2FFF758FA104B1B6813F0020F27
:101BD00001D1032CF3D10D4B1B6813F0020F05D17B
:101BE0000B4AEE2313600124136005E0074B1B68CA
:101BF00013F00200FAD104461DB1FFF78FFD00E09B
:101C00000224204670BDC046001D00204C860840BE
:101C10003888084070B505460C46134B1B6813F016
:101C2000020FFAD1114B93F90030002B01DBFFF7C3
:101C30005FFD0F4AEE23136013600E4BA21C013CA4
:101C40001A602919022000F0CBF80B49240144EA5C
:101C50000101022000F0D6F8022000F0DDF8022099
:101C600000F0F2F8002070BD4C860840001D0020F6
:101C7000388808402888084002C001C010B50C46CA
:101C8000FFF7C8FF2046FFF777FF10BD2DE9F041B1
:101C9000294E337813F0010701D000204AE0274B8A
:101CA00001251D6004331D6004331D60244BF822A0
:101CB0001A60092203F5C8731A600C32A3F59073F9
:101CC0001A60204B0B221A601F4A402313601368CE
:101CD0007F2443F0200313601C4BD5221F60483340
:101CE0001C60103B1A601A4B1878FFF735FD194A33
:101CF0008D20136843F004031360FFF7CBFB164BF2
:101D00008E201C60FFF7C6FB022000F091F81349FB
:101D1000022000F06DF8032000F08AF803200F493C
:101D200000F05EF80E48394601F070F83378284626
:101D30002B433370BDE8F081001D0020A8200D402A
:101D40005886084004600D402486084008860840F4
:101D50000D0200208C8608409486084028880840A0
:101D60008400002070B50288054622B140F2B933E4
:101D70009A422AD103E040F2B9332B8001E0822954
:101D800001D0012025E005F091FB05F001FB802149
:101D9000FFF760FE002805DD80B205F0F3FA0D4B79
:101DA0001B6998470C4A137813F0400FE3D00023C7
:101DB00013700A4B1C68FFF7B1FCFFF767FF14F0C4
:101DC0003F0FD8D0FFF794FCD5E74FF00003038016
:101DD000032070BDA0B42000001D002048860840EC
:101DE000032802D8014B02019950704700000020DF
:101DF000032803D8024B03EB001359607047C04619
:101E000000000020032804D84300024A013342F8AE
:101E10003310704700000020032805D801238340B9
:101E200002490A6813430B607047C04628F00F4010
:101E3000032805D80123834002490A6813430B6035
:101E40007047C04620F00F40032805D80123834087
:101E500002490A6813430B607047C04614F00F40F4
:101E6000032801D9002006E04300034A013352F859
:101E7000333003F00700704700000020024B4FF0A2
:101E8000FF321A607047C04604F50F40014B012233
:101E90001A6070474CF00F4010B5094C00214022E9
:101EA000204609F0EDF9074B01221A6004332E2079
:101EB0001C60FFF7EFFA2F20FFF7ECFA10BDC046C9
:101EC0000000002004F00F4030BF70470A4B1B6831
:101ED00013F4801FFAD1094A136823F48033136086
:101EE000054B1B6813F4803FFAD1044A136843F48E
:101EF000003313607047C04604200D4000200D40A1
:101F00000A4A1368834210D00BB91A460AE0536894
:101F100083420AD00BB9012204E09368834204D0C3
:101F20001BB90222014B43F8220070470003002036
:101F3000054B00221A60054A136843F0040313603E
:101F4000034B01221A70704758200D4010ED00E03D
:101F5000011D002010B52B4B1B6813F03F0314D15B
:101F60001C4604E0984780B104340C2C43D0264B27
:101F70001B59002BF6D13EE0FFF7CCF80446FFF7E3
:101F8000CFF8201A092800D914B9FFF79DFF37E0D0
:101F90001E4A136823F4003313601D4B1B6813F4AF
:101FA000801FFAD1194A136843F480331360184B29
:101FB0001B6813F4803FFAD0FFF7B2F8201A092803
:101FC00002D8FFF783FF1BE0632803D9114B1A786F
:101FD000022A00D00122104B1A6000F061FE10B9F5
:101FE000FFF798F828B9FFF771FF0B4B00221A6032
:101FF00006E030BF04E0074B1B78002BC5D0BBE7E1
:1020000010BDC046488608400003002000200D4057
:1020100004200D40011D002058200D4010B50B4B31
:102020001B6813F0030F10D0094B1B6813F0806F6F
:10203000FAD1074B1B6813F0806FFAD0FFF758F8FE
:10204000FFF744FF014B00221A6010BD58200D40DD
:1020500004200D4010B50446E1B20020FFF7D0F88F
:10206000204610BD70B50546002402E0FFF7F2FFE0
:1020700001342B1913B1285D0028F7D10A20FFF78E
:10208000E9FF204670BDC04670B505460E460024E7
:1020900004E0B44207D2FFF7DDFF01342B1913B17E
:1020A000285D0028F5D1204670BDC04610B51B4BF9
:1020B0000C461A781AB9013B1B78122B04D0631E08
:1020C00003F12811002225E0154B1B784B2BF6D18C
:1020D0004FEA510C0CF1FF3303F1281102E04B7869
:1020E0008354013201396245F9DB631E03F1281282
:1020F000604402E0537800F8013C04F520132633D5
:10210000013ACCEB030301309A42F3D105E04B785E
:10211000835401320139A242F9DB10BD2B002800A3
:1021200029002800002070470120704710B50021C9
:10213000044630220E20FFF781FA00B284B1012C50
:1021400002D04FF000400BE0031142F210725A43EC
:10215000044BD3182A2293FBF2F303F5C240A830B4
:1021600010BDC046200527FF0020704701207047A2
:1021700010B50021044630220F20FFF75FFA00B2AD
:102180005CB1012C02D04FF0004006E040F6F25363
:10219000434347F6F07293FBF2F010BD0FB407B55E
:1021A00004AA52F8041B0448019200F061F8BDE84B
:1021B0000E4004B07047C04694000020084610B599
:1021C00011460AB1FFF760FF002010BD10B50446AC
:1021D0000168002004E0303A0A2303FB00200131AB
:1021E0000A782F2A01D9392AF5D9216010BDC046B5
:1021F00010B504461846029B114613F4804F0C4A52
:102200000C4B14BF9C469446226809E001F00F0372
:102210001CF8033002F8013D0B0943EA0071000984
:1022200051EA0003F2D120682260801A10BDC04636
:102230006ABC20007BBC200070B505460C4607E058
:102240002B686868094910229847034658B9103C22
:10225000102CF5D80CB9234605E02B6868680349B3
:10226000224698470346184670BDC0465ABC200017
:102270002DE9F04F91B00F91002102900792049147
:1022800049E3531C0F930F9A13780BB1252BF8D108
:10229000A2420DD00299121B0B684868214698474C
:1022A000002840F03F830F9B049A1B1BD218049216
:1022B0000F9A1378002B00F03383511C0F91537841
:1022C000002B00F02D834FF000080B782B2B0DD046
:1022D00004D8202B0DD0232B14D10DE02D2B02D0B0
:1022E000302B0FD10BE048F0010813E048F006084E
:1022F00010E048F002080DE048F008080AE048F055
:10230000100807E00F910A78A2F13103DBB2082B25
:1023100007D801E00131D8E70FA8FFF757FF059074
:102320000FE02A2A02D0002305930AE0079A131D22
:10233000079310680028B8BF48F001084B1C0590AF
:102340000F930F9A13782E2B16D1511C0F915278A0
:10235000A2F13003DBB2092B04D80FA8FFF736FF38
:1023600006900CE02A2A07D1079A4B1C0F93131DE5
:1023700007931268069202E04FF0FF3106910F9B1F
:102380001A786C2A0AD15A1C0F925B786C2B02D1F6
:1023900048F080080BE048F060080DE0682A0BD197
:1023A0005A1C0F925B78682B04D148F02008531C0C
:1023B0000F9301E048F040080F9B1A78652A45D03A
:1023C00019D8472A4BD00BD8452A42D03BD8412AAE
:1023D0004BD05BD8002A00F0A382252A56D153E0C7
:1023E000612A3FD002D8582A50D126E0632A3FD034
:1023F000642A4BD115E06F2A19D007D8672A2BD051
:102400001ED3692A0DD06E2A40D13AE0732A32D009
:1024100002D8702A3AD131E0752A05D0782A35D110
:1024200008E048F4245831E048F410682EE048F4FD
:1024300088582BE048F4C85828E048F4B24825E012
:1024400048F4007822E048F484481FE048F4024849
:102450001CE048F4424819E048F4813816E048F49A
:10246000A13813E048F4C13810E048F4E1380DE039
:1024700048F4A0680AE048F4806807E048F440782F
:1024800004E048F4E06801E048F4C06801330F93C9
:1024900008F4E063B3F5806F00F07D8107D8B3F5F1
:1024A000807F1DD0B3F5407F40F03582B1E1B3F5B8
:1024B000C06F08D0B3F5E06F00F02782B3F5A06FCE
:1024C00040F02982F5E1029A95491368506801228B
:1024D0009847002840F02682049B013304931AE2B7
:1024E000069A0EA9002A0E9102DA0123069301E052
:1024F00028F0100818F40052039208F0E00335D0D9
:10250000402B0FD003D89BB1202B2AD104E0602BA5
:102510000ED0802B25D113E0079B1A1D079293F94B
:10252000003009E0079B1A1D0792B3F9003003E061
:10253000079B1A1D07921B681A464FEAE27308E0D0
:10254000079B073323F0070303F108020792D3E93F
:102550000023002B07DA564263EB43074FF0010AD2
:1025600033E00022002316461F460CE0402B14D017
:1025700003D8BBB1202B04D108E0602B12D0802BF4
:1025800018D0002600274FF0000A1EE0079A131DFE
:10259000079316784FF0000715E0079B1A1D079266
:1025A0001B8803E0079B1A1D07921B681E464FF00D
:1025B000000708E0079B073323F0070303F1080235
:1025C0000792D3E90067DDF80CA008F4C053B3F517
:1025D000805F08D0B3F5C05F38D0B3F5006F06D088
:1025E0004FF0000B3AE00C463246394626E0894669
:1025F00034463D4610E0204629460A22002308F0D2
:10260000D1F8303209F8012D204629460A2200234C
:1026100008F0C8F804460D4654EA0503EBD10E9BBA
:10262000CDF83890C9EB030B18E002F00703303304
:1026300004F8013DD30843EA4172C90852EA010394
:10264000F3D10E9B0E94C4EB030B07E00EA83246A9
:102650003B46CDF80080FFF7CBFD8346069941F25B
:10266000080359458ABF069A4FF00009CBEB0209CF
:1026700041F6080208EA02029A4205D1B9F1000FB8
:1026800008BF4FF001090FE041F608039A420BD151
:1026900056EA070308D0234A234B18F4804F14BF8F
:1026A0001C461446022501E000242546039989B101
:1026B000BAF1000F01D01D4C0BE008F00603022B0D
:1026C00006D0062B1A4B08BF012508BF1C4601E0A7
:1026D000184C012509EB0B03059A5819824201D8C1
:1026E000002601E0059B1E1A18F001030CD118F01A
:1026F000100F02D0B1441E4606E002983146FFF7A3
:102700009BFD002840F00E8145B102992A460B68D6
:10271000486821469847002840F004814C4615E05F
:102720008CBC20008EBC200091BC200094BC2000FA
:1027300096BC2000C9BB2000029A7D4913685068EE
:1027400010229847002840F0ED80103C102CF3D860
:1027500044B1029922460B68486875499847002899
:1027600040F0E080029A0E99136850685A469847E4
:10277000002840F0D78018F0010F06D002983146AB
:10278000FFF75AFD002840F0CD8004990BEB0103C0
:102790005B194B443AE0079A131D0793156815B966
:1027A0000624644D06E02A4600E001321378002B2F
:1027B000FBD1541B069A002A02DB944228BF144620
:1027C000059BA34201D8002601E005990E1B18F0D5
:1027D000010F06D102983146FFF72EFD002840F088
:1027E000A180029A2946136850682246984700281B
:1027F00040F0988018F0010F06D002983146FFF79C
:102800001BFD002840F08E80049963189E190496E1
:1028100081E0079A10A8131D07930DF13503126884
:1028200040F8083D0023CDF80080FFF7E1FC0146A9
:1028300030B90E9B01215A1E0E92302203F8012C52
:102840000E9ACD1C531E0E93782302F8013C0E9A6B
:10285000531E0E93302302F8013C0E9A531E0E9322
:10286000232302F8013C059AAA4201D8002401E082
:10287000059B5C1B18F0010F05D102982146FFF75C
:10288000DBFC00284ED102992A460B6848680E9955
:102890009847002846D118F0010F05D0029821462C
:1028A000FFF7CAFC00283DD1049AAB181C19049408
:1028B00031E0079B1A1D07921B688DF83830059B85
:1028C000012B01D8002401E005994C1E18F0010FDE
:1028D00007D102982146FFF7AFFC18BB049A1219E2
:1028E0000492029901220B6848680EA99847C8B95A
:1028F00018F0010F04D002982146FFF79DFC88B91B
:10290000049A631CD218049205E0079B04991A1DCF
:1029100007921B6819600F9C2378002B7FF4B3ACDF
:10292000049801E04FF0FF3011B0BDE8F08FC046D1
:102930009FBC200098BC200070B50546002402E032
:10294000002100F063FA285904340028F8D170BD42
:1029500070B503880646154613B14A2B32D112E0F2
:102960001B4800F0B7FB044604E0201DA16800F0FE
:102970006FF92468002CF8D1164B01221A704FF021
:102980004A03338001E0882901D001201EE010486D
:1029900000F0A0FB044612E0231D9D420ED10C481E
:1029A000214600F0A1FB0C4A636915681360A36916
:1029B0000BB1E0699847084B1D60E0E72468002CE4
:1029C000EAD1DCE74FF000030380032070BDC0466E
:1029D0000C030020021D00201C03002010B5074B33
:1029E00004461B781BB1043000F090F801E0C3608E
:1029F00003610348214600F077FB10BD021D002053
:102A00000C03002070B50C4E05463068EB610B4B93
:102A10006861AA611B780C463BB13468084B281DDD
:102A2000336000F015F9346000E0A96005482946DC
:102A300000F078FB70BDC0461C030020021D002082
:102A40009C0000200C03002070B5084B06461B7844
:102A50003BB1074C074B25680430236000F0F0F8C9
:102A600025600548314600F05DFB70BD021D002069
:102A70001C0300209C0000200C030020054B10B517
:102A800000241C70044800F021FB0448214600F09B
:102A9000BDF910BD021D00200C0300209C00002089
:102AA0007047C046C068D0F1010038BF00207047B1
:102AB0004368006818187047024B1868003818BF40
:102AC000012070471003002010B50E4C2268AAB1F7
:102AD000FEF7BEFA236819685A685218C0EB020E56
:102AE000996807E04B680A6889689B181B1A9E451D
:102AF00028BF9E460029F5D10EEB0002024B1A605A
:102B000010BDC046100300201403002010B50B496F
:102B100004460A68904203D183680B600BE01A46B2
:102B20001AB19368A342FAD103E00023A360E360E3
:102B300010BDA3689360FFF7C7FFF6E710030020FE
:102B400010B5024800F0DEF810BDC046AC00002011
:102B500070B50646008810B1592842D106E0234BD3
:102B600018604FF05903338001203EE0872915D1CA
:102B70001E4B186800E080680028F0D0C3689342BC
:102B8000F9D01A4B186005E0CB6893420ABF8B68F6
:102B90000846836081680029F6D1E2E78229E0D106
:102BA000124B00251C6819E0204600F0EBF998B1A3
:102BB000E0688821224600F07DF858B9E060A268FC
:102BC0000DB1AA6001E0094B1A600023A360FFF772
:102BD0007BFFE5E7FFF7B4FF2546A468002CE3D1AF
:102BE000BFE74FF000033380032070BD10030020C7
:102BF00010B50446FFF7A4FFE3685BB10A4B1A68FF
:102C000006E0A24203D1094B1B68D36009E0926839
:102C1000002AF6D1054B044A1B68E3601368A360E1
:102C20001460FFF751FF10BD100300201C030020AB
:102C300010B5044600F0B4F92046FFF7D9FF10BDE7
:102C400010B5044600F098F92046FFF7D1FF10BDFB
:102C500010B5044600F0AAF92046FFF7C9FF10BDE1
:102C6000024B1878421C1A707047C046061D00209F
:102C7000064B6FF075021A70054B76321A70054BD1
:102C80001A70054B1A60054B1A607047061D00202C
:102C9000031D0020051D0020200300201C03002030
:102CA000024B1A78024B187810187047071D002045
:102CB000051D002070B50F4E054696F800C0084669
:102CC000BCF1200F144601D1012011E00A4B0B4941
:102CD0001A780B4B624402F01F021A700C23534304
:102CE000CA18C8540CF10103546095600020337079
:102CF00070BDC046051D0020031D002024030020D8
:102D0000081D002040B1837B013BDBB2012B03D8BF
:102D1000024B0122C2731A707047C046071D002083
:102D2000807B003818BF01207047C0462DE9F04174
:102D30001F4B04461F681F4B0E461B68A34202D060
:102D4000002BFAD132E0002C30D02046FFF7E8FF0C
:102D5000D0B10023A373174B1D6807E0AC4204D029
:102D600028468721224600F027F82D68002DF5D14E
:102D7000A3684BB1B44207D00D4B04F10C001C60AA
:102D8000A36883212A4698470A4A11688C4209D1D0
:102D90002368136008E00B68A34202D123680B602C
:102DA00002E019460029F6D1014B1F60BDE8F08111
:102DB0001C0300202003002070B5837B044613F021
:102DC000010F0D4615D083689BB10A4B1860022392
:102DD0008373836800F10C0098470238012801D9F9
:102DE000832D04D120462146FFF7A0FF01E00123F7
:102DF000A37370BD1C03002070B5034C2568FFF75A
:102E0000DBFF256070BDC0461C03002010B50A4BD7
:102E10000A461B68194600E0096881420AD0002969
:102E2000FAD10360044B18600123818183738131DF
:102E3000FFF7E2FF10BDC0462003002010B50A4A8C
:102E400000231370094B1C680AE0E37B3BB10123AC
:102E50000022A373E27320468221FFF7ADFF2468AE
:102E6000002CF2D110BDC046071D00202003002019
:102E70002DE9F041234B1B780BB1FFF7DFFF224F09
:102E80003E78002E36D0214C0C2322782049534323
:102E9000C818C95C1F4B0132197045681E4B02F0FF
:102EA0001F021D6080681D4B22701860731E3B70EE
:102EB000C8B91B4B1A681B4B1A600FE0114B1B78EB
:102EC0000BB1FFF7BBFF134B164C1978124B206860
:102ED0001A68FFF771FF23681B682360114B1B689A
:102EE000002BEBD106E0812901D1012383732A460F
:102EF000FFF762FF034B1A78034B18781018BDE8F0
:102F0000F081C046071D0020051D0020031D002084
:102F100024030020041D002018030020A404002026
:102F200020030020A804002010B5074C206848B1F9
:102F300000232360436881689847206810B10068C7
:102F4000FEF712F910BDC046AC04002010B5074AC8
:102F50000C4611684360029B04608360106011B9E5
:102F60002046FEF701F9002010BDC046AC04002049
:102F700010B5FEF7CDF810BD036842689B180360DA
:102F80007047C04610B50446FEF762F82368C3F1E7
:102F900001031B18606898422CBF0020012010BD5F
:102FA00010B50446FEF754F8206010BD10B541601E
:102FB0000446FEF74DF8206010BDC04670B5048889
:102FC0000546672C09D0792C34D0002C3AD1FFF774
:102FD00047FE1F4B18701F4B1C601F4800F036F94E
:102FE000B0F1FF3F04D14FF067032B8002302DE09A
:102FF0000A28184907D00A687E2AEEDC174B985435
:10300000531C0B60E9E70B68144A0024D4540133C5
:103010000B600F4B20461978FFF74CFE104B8521B3
:1030200018682246FFF746FE40B94FF079032B801F
:1030300001300BE0852901D0012007E0054B00227B
:103040001A60CAE74FF000030380032070BDC0463A
:10305000CC2F0020B8040020B00400208A1D0020DE
:103060001C03002010B505480549802200F0D0F867
:1030700004480021FFF7CAFE10BDC046B00400207E
:10308000091D0020BC0000200D2810B5014601D10B
:10309000002014E00A4C23782BB90A4800F0C0F84D
:1030A00048B9012306E00A2805D1064800F0B8F81F
:1030B00008B1002323700448FFF724FE012010BD4F
:1030C000891D0020B0040020BC0000200023036004
:1030D0007047C04600687047006818B103680BB1BC
:1030E0001846FBE77047C046036883B11A460023C1
:1030F0000BE08A4207D111680BB9016000E019604A
:103100000023136003E013461268002AF1D17047D0
:1031100070B505460C46FFF7E7FF2B6823602C606F
:1031200070BDC04670B505460C46FFF7DDFF0023B5
:1031300023602846FFF7D0FF08B92C6000E0046048
:1031400070BDC0460368002001E01B680130002B01
:10315000FBD1704700B900E000687047064A136869
:1031600043F004031360054B186804331B6840EAFE
:10317000032080B27047C04600700D4014700D40AF
:103180001C4A136823F00C0313601B4B01221A60C6
:10319000194B1B68012BFBD1184B08221A60DB323C
:1031A00003F505731A60164B1B6813F0010FFAD074
:1031B00000220DE0134B01321B6803F0010341EACA
:1031C00003039BB25B00102A99B2F3D10A4611B9EE
:1031D00011460022EEE748F203039942F8D00A4A6A
:1031E000C1F30F23136001F0FF031360074BEF22BD
:1031F0001A60704700700D40A8200D4024860840DA
:10320000648608409C86084014700D403888084049
:103210000023013A01600271437183717047C04617
:1032200090F805C083790279C3EB0C0313409342F5
:1032300001D1002008E0036803F80C1043790279FB
:1032400001331340437101207047C04681794379AF
:1032500090F804C05B1A13EA0C0F02D14FF0FF3054
:1032600006E003685A5C4B1C03EA0C0383711046AA
:103270007047C046024604480378012B02D14378C8
:10328000934200D0002070470B1E002070B51378C9
:10329000064610460A7A83F002039A421DD14A7A02
:1032A00043789A4219D18A7A83789A4215D1CA7A98
:1032B000C3789A4211D10A7B03799A420DD14A7B95
:1032C00043799A4209D18A7B83799A4205D1CA7B94
:1032D000C3799A4201D1032322E00B89B3B98B7AD7
:1032E000A3B9CB7AFF2B11D10B7BFE2B0ED14B7BDD
:1032F00063B90D4D0224224628680E3107F014FFF1
:103300002B681B19B4402B60E0B20BE0064C08316F
:103310002068082207F008FF236808332360012390
:10332000B340D8B270BDC046C40400202DE9F041BE
:10333000140902F00F050F2C08BF102406461F4683
:103340000F2D08BF102514B1224607F0EDFE2B19F2
:103350000F2B05DC30190021C3F1100207F090FF9C
:10336000ADB10E4BC5F11000301819682A4607F0B0
:10337000DBFE022D06D10A2C04D84FF0FF33F37286
:10338000DB183373054A13685B19136004E01CB142
:103390003046394602F0AAF8BDE8F081C4040020A6
:1033A00010B50F4C0220A17904F03AF8A379112B43
:1033B00001D0062B05D1238D618D9942A8BF1946F6
:1033C00009E03A2B01D0002105E094F8282094F878
:1033D000293043EA0221012004F022F810BDC04642
:1033E000842400202DE9F04F9B4B00241C709B4B44
:1033F00085B01C7003F0CCFF994B1860042004F0DA
:1034000017F8984B00B218609748FFF7BBFD18B14A
:10341000964B1C80964B1C80914B19680A784B7810
:1034200043EA022402F0F802C02A03D0E02A9048BE
:103430002ED111E08A78CB784FEA445943EA02262C
:10344000864A4FEA595913784FF0010A0433137032
:10345000002201929346B5E20B79804D0193CB781F
:103460008A784FEA445943EA02262B7804880533C8
:103470002B7003F0A3FF2B784FEA5959E41A241854
:103480004C45C0F29C824FF0000A4FF0010B99E2CC
:10349000764B4FF000094FF000021A800280CDF801
:1034A000049049464E46CA46CB4612E0BAF1000F98
:1034B0000ED00F2003F0C2FF01466E4803F04AFD14
:1034C00010B96A4B208018804FF0010A514600E085
:1034D0000121674B1B88B3B1B9F1000F00F07A826C
:1034E000624B1B884B4540F07582634B1B88B3428F
:1034F00040F070820F2003F0A1FF01465D4803F009
:1035000029FDE8B966E209F1FF339BB240F213529C
:10351000934215D819B1BAF1000F00F05B82534BFA
:103520004FF48061A3F80090534B4F481E80FFF783
:103530003DFD0F2003F082FF01464E4803F014FDCD
:10354000464C2178052900F0DA81454B1A68505C19
:10355000551800F0E003602B40F0C0818B1C4748F9
:10356000D31803606F7812F8018017F0800F01D034
:103570000133036018F0100F08F0080530D13F4EFA
:103580003F4CCDB9316803220131601C07F0CCFDFE
:10359000336813F8041B8A08336002F00F0343F00A
:1035A00060032370637802F0300242EA811203F074
:1035B0000F031A4362702DE0602323703168A01C52
:1035C00011F8012B930803F0300302F00F021343AC
:1035D0006370022207F0A8FD33680333336019E0FB
:1035E000274C95B9254802681378C3F3830343F049
:1035F0006003237012F8011B65808B0803F0300311
:1036000043EA81136370026004E0602323700023A7
:103610006370638018F0040606D11848184A0368DE
:1036200013F8011B9171036018F00302144C03D0CE
:10363000144B9B5CE37105E0104B1A6812F8011BF8
:10364000E1711A6017F0400FC7F3011436D017F07C
:10365000800F19D100201EE00A1E0020151E002038
:10366000D4040020C0040020CC0400204A1700200D
:103670004E170020CD2F002048170020C404002042
:10368000D8040020DABC2000844B1A78844B1B68D5
:103690009B189B7818093CB1FFF7ECFD814B186033
:1036A000002840F095812AE125467F4B0F201C5DC4
:1036B00003F0C4FE294603467C4807E07C4B0F20FC
:1036C0001C5D03F0BBFE7B49034678482246FFF7AA
:1036D0002DFE17F0080007F0030407F0040219D0CC
:1036E000002A3FD102320DF10E00734907F01CFD94
:1036F000631EDBB2012B06D8704B1A6812F8011B4F
:103700008DF80F101A606E4B6E481A5D0DF10E01A8
:10371000002325E0DAB117F0800F07D05F4B1A784D
:103720005F4B1B689B189B7803F00F00FFF7A2FD0F
:103730005C4B05461860002800F0E1805A4B1020D1
:103740001C5D03F07BFEA91C03465E4807E0584B56
:1037500010201C5D03F072FE56490346594822466C
:10376000FFF7E4FD584A137828331370002E72D007
:10377000524B1D682B7803F0F803F02B6BD1534BA1
:1037800011229A712E7806F0F303F03B032B00F21E
:10379000B680DFE803F002122639484C691C022289
:1037A0004B4807F0C1FC21684A480331022207F068
:1037B000BBFC2368053323603DE0444C691C0222B6
:1037C00004F1280007F0B0FC3C490A68D3780432C1
:1037D000A3F580539BB21B0243F0F00363850A609C
:1037E00029E06B783948A3F580539BB21B0243F064
:1037F000F003038502222A30A91C07F095FC2F4A0A
:1038000013680433136016E06B7831491B09A3F584
:1038100075639BB21A0A42EA03220A806B78AA1CDB
:1038200003F00F03A3F575639BB21B0243F0F00393
:103830004B80224B1A6016F0040F08D11F4C26480B
:103840002168022207F070FC2368023323601E4ABD
:10385000137808331370194B114A1B6812680F4D07
:103860009B1A2B70194CB9F1000F0BD103F0A6FD78
:10387000154B2A781B78283B9B1A1B181A122271A9
:10388000637104E0A9F128021312237162710F4AD7
:103890009379112B33D19388938530E0151E002046
:1038A000D4040020BC040020F3BC2000E00400206D
:1038B000DEBC2000E2BC2000D8BC2000C4040020F4
:1038C000E4BC2000F00400200A1E0020D8040020E0
:1038D000000500200205002006050020412879D1BE
:1038E0000131C9B221703D485118282207F01CFC53
:1038F00023783B4A2833237013782833137003F05E
:103900005DFD384C2378834264D803F057FD344E74
:10391000019A3378277803EBC205C41BDFF8D08007
:103920002A1940F214539A42C8F8004052D82E4B3C
:103930002A4819684019C919224607F0F5FBB9F160
:10394000000F14D0BAF1000F04D0284B3278198838
:1039500052181A802548BBF1000F02D0A0F8009041
:103960000BE0234B02881B689B18038005E0D8F806
:10397000002033789B181F4A13801C4B1A881AB1F9
:103980001C4B1B88934225D11A4C1B482288134993
:1039900007F0CAFB2288194B1A804FF000032380DE
:1039A000124B174C4FF000021A80236823B1FFF727
:1039B000F7FC23685B68984702F0D2FF0AE04FF0FB
:1039C000000AD346094C2388002B7FF46FAD7FE5B6
:1039D000851C6AE605B0BDE8F08FC046D80400201B
:1039E0000A1E0020151E0020D40400204E170020BF
:1039F000EC0900204A1700208424002070240020B5
:103A0000F009002010B5064802F056FF054A0123D0
:103A10001370013B53706FF055039370D37010BD5A
:103A2000713A20000B1E002010B5074C0146237888
:103A3000012B06D1A01C082207F046FB08B920463E
:103A400000E0002010BDC0460B1E002010B501464E
:103A5000102003F005FD044B04489B6800219847A3
:103A6000FDF7F2FC10BDC046ECB42000454120003B
:103A70007B4B2DE9F74F00221A707A4B04461A70DF
:103A800003F014FD03F084FC774B04211860092037
:103A900003F0C6FC754B1B680BB1FFF781FC684651
:103AA0000CB9734901E06846214603F05DFA714B99
:103AB0006C4C1B886C493E2B40F22E820A686E4B80
:103AC000911C196023786D4DD218002393702846FD
:103AD000FFF7AAFF28B96A48FFF7A6FF08B906460C
:103AE00004E0654A8026136801331360DFF898818B
:103AF00098F8010098F80010020942EA0112D2B2C7
:103B0000930843EA8213DAB210F00F0FD7B212D142
:103B1000B8F802307BB911F00F0F04D110F0F00F9C
:103B200001D178272CE0544A13681F70136870275E
:103B30000133136024E011F00F0F15D110F0F00FD6
:103B400012D14D4C22F03F03216800F00F021343C5
:103B50000B7020684B490130022207F0E5FA236818
:103B60006827033323600BE0434C47492068042255
:103B700007F0DAFA23681F70236860270433236094
:103B800098F80610112908BF47F0040717F0040F32
:103B900005D1394A1368197013680133136098F816
:103BA0000710402906D0FF2907D0012908D147F086
:103BB00001070BE047F0020708E047F0030705E0C4
:103BC0002D4A136819701368013313602C4C238835
:103BD0008BB963887BB9A3886BB9E3885BB9238908
:103BE0004BB963893BB9A3892BB9E3891BB946F06B
:103BF0004003DEB257E02248FFF716FF234B014691
:103C00001860B0B1174B49781A78174B0232186810
:103C1000835C43EA01138354194904201C4AFFF7CB
:103C200035FB6FEA86636FEA9363184300F0FF0683
:103C300039E02378FE2B2DD16378802B2AD1B8F878
:103C40001A303BBBB8F81C3023BBB8F81E300BBB96
:103C500004200B490E4AFFF719FB3043C6B222E09D
:103C60000A1E0020151E0020D4040020F0090020A8
:103C700040BD200070240020C40400209C240020AB
:103C80008C2400208624002084240020BC040020F2
:103C90007C240020944C95492068102207F044FAB7
:103CA0002368103323602B78FF2B55D146F008038F
:103CB000DEB26B78022B18D16B88B3B9AB88A3B98D
:103CC000EB8893B92B8983B96B8973B9AB8963B9D5
:103CD000AB7B53B9844A98F82730116846F0030645
:103CE0000B7013680133136070E06B88002B64D194
:103CF000AB88002B61D1EB88002B5ED12B89A3B957
:103D00006B8993B92B7B83B9774C46F00203226809
:103D1000DEB298F81930764913702068032201301A
:103D200007F002FA236804334FE02B89002B44D1BB
:103D3000AB7A002B41D16C4C46F001032268DEB215
:103D400098F819306B49137020680522013007F08C
:103D5000EBF92368063338E06748FFF765FE674BE9
:103D60000246186098B1664B52781978654B02315B
:103D70001868435C134343546A4600205E49FFF7CA
:103D800085FA46F00403184300F0FF061EE02B7886
:103D9000FE2B12D16B78802B0FD1B8F81A3063B993
:103DA000B8F81C304BB9B8F81E3033B952496A46DE
:103DB000FFF76CFA3043C6B208E04B4C4E4920681E
:103DC000102207F0B1F92368103323604E4A2823EC
:103DD000137098F80630112B76D14C4D4FF6F071D8
:103DE0002B881A0A42EA032290B200EA01014FF23C
:103DF000B003994220D16B881A0A42EA03224FF697
:103E0000F07302EA03038B4216D137496FF00C03BB
:103E10000A6813706A882888130A43EA0223020A90
:103E200042EA00220C6803EB021303F5AA636370F5
:103E30000B6802330B603AE06B881B0203F47F438C
:103E4000B3F5704F0FD1284C6FF00E0322682F4945
:103E5000137020680222013007F066F96B8822682F
:103E60001B0AD37013E000F47F43B3F5704F1E4C70
:103E700010D122686FF00D0313702B8822681B0A83
:103E80005370206822490230022207F04DF923685E
:103E900004330BE022686FF00F03137020681B4996
:103EA0000130042207F040F92368053323600E4CEB
:103EB00002222068174907F037F92368124A0233B3
:103EC00023601378083313700E490D480B6802788D
:103ED0009F5402780B689B185E70034B0A681B683E
:103EE0009B1A03702CE0C046C40400208C240020E0
:103EF000A9240020A72400209C240020BC0400202A
:103F0000151E0020D40400200A1E0020AC2400202E
:103F1000AE240020B22400200A68412313702078C8
:103F20000B680130C0B22070282218187B4907F0B6
:103F3000FBF823787A4A28332370137828331370D8
:103F40006946102003F08CFA764BDFF8F4A11B6869
:103F50009847754B30EA200428BF15245B699847C1
:103F6000DFF8BCB1714FC4F17D04C0EB04099BF8CC
:103F70000050BAF800403978621BC1EB09039A423D
:103F800040F3B28003F07CFB7823B4FBF3F30133FE
:103F9000984240F3BF80664E3A783168DFF89C81E2
:103FA000081D07F00DF9BAF8003032686FEA834354
:103FB0006FEA9343C3F3072313703268BAF80030F3
:103FC00053705C4A316813881B0A8B701388316800
:103FD000CB7013889BF80040013313803A78306827
:103FE0000432D2B23A703B78C2EB09024B4922F05C
:103FF00007020919C8F80020C01807F095F8D8F88A
:1040000000303878C01880B203F0BCF903F016FB1A
:10401000044600287ED06846FFF718FD204603F0CE
:10402000CDFA204603F0E0FA434B1B68012B71D018
:10403000042B6FD0052B6DD0D8F800209BF80030F2
:104040009B189DB205233B70BAF8003032686FEAC6
:10405000C3436FEAD343C3F307231370BAF80030A6
:10406000326853703B78C3EB090323F00703C8F8A9
:10407000003034E02E4B2D4C1A68EB0813710B887E
:104080002E495A1B0B682D4E9A42294BB8BF0A6025
:1040900018682278214980184919326807F044F8D5
:1040A00020783368C01880B203F06CF903F0C6FAC8
:1040B000044600282ED06846FFF7C8FC204603F0CF
:1040C0007DFA204603F090FA1B4B32681B68012BE7
:1040D00020D0042B1ED0052B1CD0AB189DB2184944
:1040E0000B88AB42C6D813E0114B186840180B4937
:1040F000491907F019F8BAF800303878C0189BF859
:104100000030C01A80B203F03DF96846FFF79EFC0C
:10411000012000E00020BDE8FE8FC046842400207E
:104120000A1E0020DCB42000ECB42000151E002084
:10413000D40400204C170020C8040020EC09002003
:104140007024002010B508460C46114601F09CFB77
:10415000044B1B6813B19B6820469847024B1C60B8
:1041600010BDC046F0090020C804002030B5C37857
:104170000C46CB181449DDB2CD708378220AD318CF
:104180005FFA83FC81F802C0437894454B70007855
:10419000087005D20133DBB24B700BB9431C0B70B6
:1041A00004F0FF039D420DDA0CF10103064ADBB275
:1041B00093703BB953780133DBB2537013B9137862
:1041C0000133137030BDC04678240020013A01EB62
:1041D000020C0BE00B784A7802EB032292B28318B0
:1041E00098B2904201D2431C98B202316145F1D39A
:1041F00007D10B781B021A1890B2984201D2431CC7
:1042000098B270470C4B002284461A700EE00B489F
:10421000531CD9B230F81230634506D1064B1A70E0
:104220004FF0000320F8123004E00A46072AEED9C6
:10423000014B1A707047C0461D1E0020942B0020B1
:1042400010B50A4C014620681430FFF78FFF084A6A
:10425000216813780B75216853784B752168937822
:104260008B752168D378CB7510BDC046A829002076
:1042700078240020030A43EA002398B27047C0461E
:1042800037B5114C114D22792B7804F10801C3EB9D
:10429000022362799B189BB2ADF80630BDF8063058
:1042A0002022C01880B2FFF791FF2978BDF80620C0
:1042B0002831611892B2FFF789FF10B94FF6FF70ED
:1042C00001E0FFF7D7FF3EBD84240020161E00202A
:1042D00010B51120FFF7D4FF10BDC04610B5062061
:1042E000FFF7CEFF10BDC04610B53A20FFF7C8FF5C
:1042F00010BDC04682B2000C030A43EA0023100A34
:104300009BB240EA022043EA0040704770B5294B57
:1043100002221A70284B10461978284B5B185B78DC
:10432000DB00DC1D3EE0264D01F128031B18EA18D6
:10433000EB5C012B32D002D3632B14D101E0431C80
:104340002FE01C4C207005F055FF864600282FD129
:10435000194B22781978AB185B1893F82930D218CA
:104360000232227025E003F0C003802B06D0C02B60
:1043700007D0402B12D10F4B187019E00D4B18705D
:1043800004E00C4B18702B7EFF2B11D00A1828323A
:104390000420022101F01AFF02200AE053780233C0
:1043A000C318D8B28442BEDA024B1870002000E075
:1043B000012070BD1C1E0020161E0020AC24002011
:1043C000842400202DE9F041254B07461D888846AE
:1043D0006B1C9DB2B5F5FA4F28BF4FF480550024F1
:1043E00009E02846FFF746FF1E4B013403EB461356
:1043F0001B8A8342ECD00A2CE6B2F2D1184B002281
:104400001D80194B1A700DE01649531CD8B201EBF0
:1044100042131B8A2BB9144B11EB42141A7007D1AB
:104420001BE00246092AEFD90F4B00241A7014E052
:104430002B0A43EA05232382A4F812802FB92046D1
:104440003946102206F01CFF04E0204639461022AF
:1044500006F06AFE054B1B7923752046BDE8F08106
:1044600052170020A82B00201D1E0020F02C002039
:104470002DE9F041114F3D78F5B1114E05F12703BB
:104480003288934203DB00233B70338014E00D4CF1
:1044900005F12801283A521B04F12800611806F0A2
:1044A0008FFE3A7833889B1A9BB23380283B1A12CE
:1044B0006371002322713B70BDE8F081161E00205D
:1044C00070240020842400202DE9F041734E04283C
:1044D000356800F0AD82724B724C7349032823603B
:1044E0000B600ED195F8253003F00F03032B04D198
:1044F000AB8B002B40F0028785E0022B40F0FE865C
:1045000073E0022840F08480684B4FF00000684A56
:104510001880684B1880D3780133DBB2D37063B94D
:1045200093780133DBB293703BB953780133DBB23C
:10453000537013B913780133137095F825100729B8
:1045400001D005290DD195F826300133DBB2782B47
:1045500085F8263040F0D286002385F8253000F01B
:10456000CDBE002900F0CA86AB8B002B46D095F853
:104570002620531E85F82630002A40F0BF8695F885
:104580002720082A05D04B1EDBB2012B0DD8052AA7
:104590000BD1002385F82530474B6FF07F021A704E
:1045A00002F09CF9142200F049BD042A01D93023FD
:1045B00002E003239340DBB285F8263095F82730DC
:1045C000013385F8273095F8253003F00F03013BC0
:1045D000072B00F29386DFE813F0AA0308000A0015
:1045E000300591063005910630050022A0E3324BDC
:1045F00004221A7002F072F900F0A2BD01F00F035C
:10460000032B40F07B862C4B08221A7000F066BD0D
:10461000052812D1294B1B681B8A002B00F06E86DF
:10462000274B002223600B60224B32601A801F4B05
:104630001A80214B08321A70F8E1224E337803F0C9
:10464000F003602B40F05A863379184C71791802C8
:10465000238842189A4200F3518601F128031B185F
:104660002380337A06F10805FF2B00F04786164BAE
:10467000B21D1A601549164B00221A700A70B379E0
:10468000002B37D101330B70FFF740FE012800F0FB
:1046900035861FD302282DD100F017BEA82900208F
:1046A000C0240020A42900207424002070240020AD
:1046B000181E0020A42B002098290020A0290020EB
:1046C000B4240020842400209C290020171E0020F0
:1046D000161E0020844C85482178854A01F1280364
:1046E000C3181360401890F8292001F1080303EB68
:1046F000C20323707F4C204600F09EFF002840F04C
:104700009180204600F042FF002840F08B80227804
:10471000FF2A4CD0FE2A02D16378802B47D0337A0F
:10472000FE2B02D16B78802B41D0338973B96B8813
:1047300063B9AB8853B9EB8843B92B8933B96B891B
:1047400023B9AB8913B9EB89002B30D0238883B907
:10475000638873B9A38863B9E38853B9238943B9DC
:10476000638933B9A38923B9A37B13B9E37B012BF5
:104770001DD0614B1B88B3F5A06F04D90220002126
:104780004FF4A06205E0F379012B06D80021032045
:104790000A4601F01BFD00F098BD05F065FC0028FD
:1047A00040F0AC85F379013BF37100F08EBD337AB4
:1047B000FE2B40F0A3856B78802B40F09F853389DA
:1047C0007BB96B886BB9AB885BB9EB884BB92B892C
:1047D0003BB96B892BB9AB891BB9EB89002B00F076
:1047E0008D8523888BB963887BB9A3886BB9E388EF
:1047F0005BB923894BB963893BB9A3892BB9A37BE7
:104800001BB9E37B012B00F07985FF2A00F0768548
:10481000384800F077FE0246002840F06F850130EE
:104820000221B6E7324E346823782B2B68D007D8A4
:10483000062B00F03F81112B00F0A7806BB17CE0CC
:104840003A2B7FD003D82C2B77D100F057BD3B2BD0
:1048500000F054853C2B70D11DE0284A137813F0EA
:10486000010F6AD143F001031370FFF74FFD0128D8
:1048700000F0448523D21C481C49027802F1280329
:10488000CB183360891802F1080391F8292003EB53
:10489000C2030370C6E7194A137813F0020F05D05C
:1048A00013F0400F49D143F0400301E043F002030D
:1048B0001370FFF72BFD012800F0208503D3022899
:1048C000B0D100F002BD084C08482178084A01F137
:1048D0002803C3181360401890F8292001F1080339
:1048E00003EBC20323709DE7161E002084240020E2
:1048F0009C2900209C24002070240020171E0020EA
:10490000864A137813F0040117D1854D43F0040350
:1049100013702A78834C02F12803E018C37813B18E
:1049200004202A3235E702F108033060A21892F819
:10493000292003EBC2032B7074E77A4A042001217B
:10494000A21A26E7FFF7D0FC4FF6FF73984240F01B
:10495000D584734D734C2B78E31893F8280002F03C
:1049600011F82B782833E218E05C517801F038FB1D
:10497000012803D16C4B4FF0000018806A4B1B8854
:10498000002B00F0BB8400F0A0BCFFF771FD664A6D
:10499000664D1388303B1380654B664A1A60EB887E
:1049A00033B1FFF795FC4FF6FF73984240F0A684B1
:1049B0006B88002B00F0A2845F4A21E0228AEAB1D2
:1049C0006B8893421AD1628A12B12B88934215D117
:1049D00023886BB963885BB9A3884BB9E3883BB97B
:1049E00023892BB963891BB9A3890BB9E38983B1E7
:1049F00052482146102206F067FB50B104F1200214
:104A00004F4B1A604E4B1C684E4B9C42D6D300F065
:104A100075BC4D4B002119604C4B02221A70454A5F
:104A2000434B1A604A4B1A604A4B198001F056FFFB
:104A3000484B1888002800F0618400F130023A4B9E
:104A400092B21A80374CA2F128031B122371283A24
:104A50003B4B6271196800F108020B7D92B2E37161
:104A60001123A371130A04F1280543EA02234FF02E
:104A70000002EA80AB800B8A10222385488A688076
:104A800004F1180006F050FB04F1080004F11801CD
:104A900000F0CCFC264B3C341C60FFF719FCC043F3
:104AA00080B2E88010B94FF0FF32EA8005F092FB47
:104AB00000F005BCFFF7DCFCFFF710FC4FF6FF73BE
:104AC000984240F01B84194C6688002E00F0168432
:104AD0002788002F00F012841F4D95F8253073B100
:104AE0002B8AB3420BD16B8ABB4208D110221348E8
:104AF000294606F0E9FA0246002800F02D81174BFE
:104B000030359D42E9D9637B03F03F03022B38D156
:104B1000134B00221E80134B1A702EE0171E00202C
:104B2000161E00208424002070240020AC240020C5
:104B3000A4290020B4240020A82B00208C240020CD
:104B4000A0290020E82C0020A82900209829002076
:104B500074240020A42B0020AC2900205C2B002012
:104B6000501700201D1E00208C4B1A888C4B33F8E8
:104B700011309A424ED04B1C03708A4801780729A5
:104B8000F2D9637B13F0040F40F0B88314236373EE
:104B9000854B4FF03C00188050232373814AE37902
:104BA0001370E37AE3711378E372A3791370A37A35
:104BB000A3711378A37263791370637A63711378A6
:104BC000637223791370237A237113782372E37A43
:104BD0000133DBB2E37263B9A37A0133DBB2A372B0
:104BE0003BB9637A0133DBB2637213B9237A0133C1
:104BF00023722288694B6D491A8063886C486280F1
:104C00002380102206F090FA684800F1100100F0AD
:104C10000DFC3DE3002303701D4618E0654B302278
:104C200002FB013202F1200043790BB9154612E074
:104C3000072B09D125B1827995F826309A4203D9FC
:104C40005C4A302303FB0125564B4A1C1A70554B16
:104C500019780929E2D9002D00F05083564B00261F
:104C60001D60032385F8263085F82430013385F84C
:104C7000233085F8226085F8276060884B492882B8
:104C8000228828466A82102206F04EFA4B4A0120FA
:104C900085F8250013782B7653786B769378AB766E
:104CA000D378A883EB76E379EB75A379AB75637959
:104CB0006B7523792B75FFF7C3FA237B03F0F003A1
:104CC000502B34DD374B1E7029E03D4B191891F8FD
:104CD0003C203C4B1A70002A29D0012A02D1431CE7
:104CE00033701CE0022A11D191F83D30042B0DD114
:104CF00091F83E3091F83F2042EA0322274B1A8078
:104D0000402A28BF4022EA832A8410E025492C4B00
:104D10000A789B1893F83D304BB19B180B70214ECD
:104D2000237B30781B09053BB0EB830FCDDB1022D2
:104D3000254B5A73244A4021537BD17543F002031B
:104D4000537302231375DB18537500239375164BA9
:104D500019806023137370E2174B1C491D600870A3
:104D6000607B10F0040F04D0202385F825200B7001
:104D70000DE2227B0C4912090A4B92001A700B8833
:104D8000283B9B1A9AB20A8095F8253003F00F0150
:104D900002291DD100F03F03122B1EE05017002006
:104DA000942B00201D1E0020702400208C24002045
:104DB0009C240020AC290020A8290020181E0020D7
:104DC000842400201E1E0020AC24002098290020EE
:104DD000012903D100F03F03022B1FD01AB9637BD6
:104DE00013F0030F1AD022792B7D9A420BD16279EE
:104DF0006B7D9A4207D1A279AB7D9A4203D1E279C9
:104E0000EB7D9A420AD0637B13F0020F00F00C8214
:104E100001298CD0022940F007828BE7637B13F0D5
:104E2000100F49D0A98B002946D005F11800FFF7D3
:104E30009DF98449237A087898423DD1627A4B786B
:104E40009A4239D1A27A8B789A4235D1E27ACB78DC
:104E50009A4231D128764B786B768B78AB76CB78CB
:104E6000EB7695F82730EBB995F8242095F82630A5
:104E700095F82210D21AA2EBD102D2B2511895F8AD
:104E8000233052B2002AB8BF5242A3EB93039B18BF
:104E9000DBB2CAB285F8233003EBD20385F82210C7
:104EA00085F82430684A0123137095F8243085F87A
:104EB00026304FF00003AB8395F82510624A01F0CD
:104EC0000F03013B072B00F21982DFE813F0080003
:104ED0002800900063018601A201AD0155011378FD
:104EE000594913F0010F13D0032385F825303D33C2
:104EF0000B704FF00002554BAA831888002800F071
:104F0000E9800B7843F002030B70FFF799F9E1E0B9
:104F1000637B03F03F03022B40F0F08107E7137837
:104F200013F0010F58D0637B03F03F03122B53D1D2
:104F3000237B03F0F003502B35DD454B00221A7024
:104F400029E0444B191891F83C20434B1A70002A71
:104F500029D0012A02D1431C33701CE0022A11D14E
:104F600091F83D30042B0DD191F83E3091F83F205F
:104F700042EA0322394B1A80402A28BF4022EA83A2
:104F80002A8410E03249334B0A789B1893F83D305D
:104F90004BB19B180B702E4E237B30781B09053BC1
:104FA000B0EB830FCDDB032385F825302379012077
:104FB0002B7563796B75A379AB75E379EB75FFF7A7
:104FC0003FF9214B42221A70204B4FF00002AA8376
:104FD0001A80234B1A8081E01B4B20221A7001F0AB
:104FE0007DFC204B1A68002382F82530C9E5637BDD
:104FF00013F0010F3AD011F0100F37D1AB8B002B0B
:1050000040F07C81114C2088013080B2FFF718F904
:105010000D490B7843F0100223880A7013B142F057
:1050200002030B7001F05AFC4FF00103AB8308231D
:1050300085F82530002385F8273011220A4B5A7352
:10504000F4E0C04678240020982900207024002035
:105050001D1E0020842400201E1E0020501700204A
:10506000A42B0020A8290020AC24002013F0200F3E
:105070000BD0A37C9649E27C42EA03220B689B1882
:105080000B6094490B889B1A0B80924B188858B17F
:1050900095F8253013F0100F06D18F4A137843F09E
:1050A00002031370FFF7CCF8A37BE27B02EB032231
:1050B0008A4B92B21A80298C8A4200D80AB9874B4F
:1050C0001980864B1B88EB83834B1B7813F0030FEF
:1050D00000F01481824B4FF00000188001F0FEFBBD
:1050E0007D4B1A7812F0200006D07D4B00221A80EA
:1050F00085F825201432A1E712F01004784909D070
:105100004FF0010204230880AA8385F8253085F832
:10511000270092E70B8883B112F0010F18BFAC8310
:10512000AB8B6F4943B90B88EA8B93426C4B88BFBA
:105130000A801B88AB8300E00B80002385F82730B2
:10514000684B1A68624B1A60654B1B8833B1AA8B97
:1051500022B1604B3C321A8018220AE05E4B1B7869
:1051600013F0020F00F0CA805A4B4FF03C00188039
:1051700010225D4B5A735DE0137813F0010F00F0BD
:10518000BD80002385F82530534B10221A7001F0A2
:10519000A5FBB3E04F4B188808B1FFF751F8637BCC
:1051A0004D4A13F001010FD0137813F0010F07D00F
:1051B000072385F82530002385F82630AB831BE0D4
:1051C000062385F8253017E0137813F0010F1CD063
:1051D000052385F82530A98390E03E4B188808B157
:1051E000FFF72EF8637B13F0010F0ED0072385F82D
:1051F0002530002385F826300120FFF721F8364BB3
:1052000010221A7001F06AFB0EE0324B1B885BB96A
:1052100074E0137813F0010F70D0072385F8253060
:10522000002385F8263069E010236373294B4FF083
:105230003C021A802C4B50221A732B7D2A4C1022D0
:1052400023726B7D29466372AB7DA372EB7DE372A3
:105250002B7E23716B7E6371AB7EA371EB7EE3715A
:105260002B8A2380688A6080204805F05DFF2048F3
:1052700000F1100100F0DAF895F8253013F0100372
:1052800003D00023E373A37302E0A3734023E3730B
:10529000184C0623A371184B1B79E3710D4B1A8828
:1052A000A2F128031B12283A2371627100232834CB
:1052B000E374A3742382FFF711F8C04320820D4BDF
:1052C00060221A7000225A705A8000221DE0C046E7
:1052D000A4290020702400209829002050170020C5
:1052E000A42B002074240020AC2400209C24002047
:1052F0008C24002084240020F02C0020054B002268
:105300001A80054B1A70054B1A70054B1A70BDE8D0
:10531000F081C04670240020161E0020171E0020B9
:105320009829002010B500F041FA00F003FF00F0CA
:10533000F1FF002206E0144B4FF0000123F8121099
:10534000531CDAB2072AF6D9002108E00F4A3023AD
:1053500003FB0123002220335A714B1CD9B20929C7
:10536000F4D90B4B4FF480621A80002207E0094BFE
:105370004FF0000103EB42131982531CDAB2092AE1
:10538000F5D9054B1A7010BD942B0020AC290020D4
:1053900052170020A82B00201D1E002001460D4A98
:1053A0000FE003785BB1B1F1FF3F02D0837C8B4209
:1053B00005D18378FE2B02D1C378802B09D000F170
:1053C0002002054B1A60044B1868044B9842E8D33E
:1053D00000207047082D0020FC090020682D0020C7
:1053E00008B100230370704710B504460020024640
:1053F00014F802C08B5C9C4506D100F10803D8B2BA
:1054000001328028F4D10FE0014683EA0C0212F049
:10541000800F09D1431CD8B201F10803DBB29842D6
:1054200002D05300DAB2F2E710BDC0462DE9F041D8
:105430000B780546FE2B0E4602D14B78802B00E000
:10544000FF2B23D01C4A1D4B00241A60274617E06F
:105450000B788BB18B7C012B0ED18B78FE2B02D17C
:10546000CB78802B08D002313046FFF7BDFFB84221
:1054700002D3124B07461C68104A1368203313608E
:105480000E4B19680E4B9942E2D303E00120FFF75F
:1054900085FF044644B92C806C80AC80EC802C8164
:1054A0006C81AC81EC8104E02846A11C102205F03F
:1054B0003BFEBDE8F081C046082D0020FC0900201D
:1054C000682D002010B5FDF749FE0446FDF746FEA5
:1054D000054B24029B68A4B22418B4FBF3F003FB31
:1054E000104000EB530010BDF02C002010B5082236
:1054F000044600F1080005F017FE237A83F002034A
:10550000237210BD70B50C4A05460CE0237843B1F8
:10551000A27CA01C2946D20805F0D6FD08B90130AE
:1055200009E004F12002054B1A60044B1C68044B8F
:105530009C42EBD3002070BDEC2D0020F809002028
:105540004C2E00202DE9F047099D16469DF820209D
:10555000994600232B6001FB0608D70804460BE0A0
:1055600023783BB1A01C49463A4605F0ADFD10B981
:105570002C6008E02C60A4194445F1D32B68002B63
:1055800014BF01200220BDE8F087C04613B5802279
:10559000064C034600920648052112220194FFF7AB
:1055A000D1FF08B1002000E020681CBDF4090020F4
:1055B0008C2D002010B50446D8B10E48022343704C
:1055C000002343808380C380038183724FF0FF32C6
:1055D00001330270C3720273E37B4373238AC38176
:1055E000FFF7D4FF044B186008B1FFF7F9FE002362
:1055F000237010BD54170020F409002037B5802314
:1056000005460B4C0093052112220A482B460194B3
:10561000FFF798FF012801D0002008E02368294601
:10562000187020681022023005F07EFD20683EBD13
:10563000F40900208C2D002013B58022064C03466F
:1056400000920648032120220194FFF77BFF08B156
:10565000002000E020681CBDFC090020082D00206F
:105660002DE9F34180230646204D00930F469046D6
:10567000032120221E4833460195FFF763FF0128CE
:10568000044601D000202FE02B68314618702868AE
:105690001022023005F048FD2B6883F8138017B9FB
:1056A0002B681C7507E02B6800221A75286839469C
:1056B000183004F0BFFE0D4C0E4823680121997488
:1056C000022343704FF0FF32002302704380838037
:1056D000C38003818372C1720273737B4373F68943
:1056E000C681FFF78BFF2068BDE8FC81FC09002024
:1056F000082D0020541700202DE9F3410546144CD5
:1057000000910E46174603212022984611482B4649
:105710000194FFF717FF012801D0002015E023684E
:105720001022187020682946023005F0FDFC23681D
:105730009E742368DF74236883F81C802268089BAA
:1057400053612268099B93612068BDE8FC81C046D3
:10575000F8090020EC2D0020104A114B10B51A60FA
:105760000EE0037843B1037D33B9183004F052FEE4
:1057700010B12068FFF71EFF094A13682033136039
:10578000074C084B20689842EBD300F01DFA00F05C
:10579000D9F80548FDF754FA10BDC046082D002081
:1057A000FC090020682D00204C2E002073B52E4CE3
:1057B00000F078F900F07CFB002160222B4805F016
:1057C0005FFD0021F822204605F05AFD284B2022DB
:1057D0001A70284B18221A704FF4A0632360264BCE
:1057E00040262671A360FFF76DFE002542F210737C
:1057F000E06023612575214C48F2FE03238065801B
:105800002B46A580E5802A46314620460095019525
:10581000FFF772FF20461A49FFF768FE294601226A
:105820002046FFF71DFF40F2FF264FF48073E3810F
:1058300026806580A580E58025816581A58120463B
:10584000FFF7DCFE4FF4007326806580A580E580BD
:1058500025816581A581E3812046FFF7CFFE0948B8
:105860000C21FDF7F5F97CBDF02C0020EC2D00207B
:10587000E92D0020E82D0020C02709005417002042
:105880007C2400204C2E002070B5054610200E46CA
:1058900001F0D4FD0549044601F05CFB20B9204627
:1058A0002946324602F0CAFD70BDC04640BD200008
:1058B00010B5034B0146186801F03CFC10BDC04612
:1058C000CC00002010B5FFF7F3FF10BD70B50C4BF6
:1058D0000546186801F05EFC65B92C460DE02046CF
:1058E0002946102205F0F0FB38B1054B2146186817
:1058F00001F036FC04460028F1D1204670BDC046B8
:10590000CC00002010B5034B0146186801F0EAFBFB
:1059100010BDC046CC00002010B5FFF7D7FF00B97E
:1059200001E0FFF7EFFF10BD10B5044630B102F003
:1059300067FD034B2146186801F0A6FB10BDC04669
:10594000CC00002070B5404B186801F023FC77E0D4
:1059500094F82230042B6ED8DFE803F01D036D337A
:10596000420004F11005284604F054FD002862D0DE
:10597000204600F0CBF850B1032384F822302846AB
:10598000052104F057FD002384F8203053E0022362
:1059900084F822304FE094F82030022B2CD804F108
:1059A0001805284604F036FD002844D0274B1888F7
:1059B000002840D194F820300146013384F820308B
:1059C0002DE004F1100004F025FD002833D004235D
:1059D000002184F8223084F8201004F1180028E017
:1059E00094F82030022B0BD9204600F08FF818B124
:1059F000037F0BB900F0C6F82046FFF795FF1AE0C9
:105A000004F11805284604F005FDA0B10F4B1888D5
:105A100088B994F820302146013384F8203022469A
:105A200000F092FE0A4B4FF47A711B692846B3FBD3
:105A3000F1F104F0FFFC044B2146186801F090FBE3
:105A40000446002884D170BDCC00002070240020C2
:105A5000F02C00202DE9F0411F46114B0546186837
:105A6000164601F0B3FB0446B8B11022294605F0F2
:105A70005BFB04F11000002184F8216084F822709F
:105A800004F0D8FC04F11800002104F0D3FC00233A
:105A900084F82030204602F0B3FC2046BDE8F081B7
:105AA000CC00002010B5034B0349186801F0D8FA68
:105AB00010BDC046CC0000202959200010B5024876
:105AC000FDF708FB10BDC046CC11002010B500B991
:105AD00001E0FDF73FFB10BD70B50B48FDF7FAFA8A
